{
  "_format": "hh-sol-artifact-1",
  "contractName": "Domains",
  "sourceName": "contracts/Domains.sol",
  "abi": [
    {
      "inputs": [
        {
          "internalType": "string",
          "name": "_tld",
          "type": "string"
        }
      ],
      "stateMutability": "payable",
      "type": "constructor"
    },
    {
      "inputs": [],
      "name": "thiefSpotted",
      "type": "error"
    },
    {
      "anonymous": false,
      "inputs": [
        {
          "indexed": true,
          "internalType": "address",
          "name": "owner",
          "type": "address"
        },
        {
          "indexed": true,
          "internalType": "address",
          "name": "approved",
          "type": "address"
        },
        {
          "indexed": true,
          "internalType": "uint256",
          "name": "tokenId",
          "type": "uint256"
        }
      ],
      "name": "Approval",
      "type": "event"
    },
    {
      "anonymous": false,
      "inputs": [
        {
          "indexed": true,
          "internalType": "address",
          "name": "owner",
          "type": "address"
        },
        {
          "indexed": true,
          "internalType": "address",
          "name": "operator",
          "type": "address"
        },
        {
          "indexed": false,
          "internalType": "bool",
          "name": "approved",
          "type": "bool"
        }
      ],
      "name": "ApprovalForAll",
      "type": "event"
    },
    {
      "anonymous": false,
      "inputs": [
        {
          "indexed": true,
          "internalType": "address",
          "name": "from",
          "type": "address"
        },
        {
          "indexed": true,
          "internalType": "address",
          "name": "to",
          "type": "address"
        },
        {
          "indexed": true,
          "internalType": "uint256",
          "name": "tokenId",
          "type": "uint256"
        }
      ],
      "name": "Transfer",
      "type": "event"
    },
    {
      "inputs": [
        {
          "internalType": "string",
          "name": "domain_name",
          "type": "string"
        },
        {
          "internalType": "string",
          "name": "url",
          "type": "string"
        }
      ],
      "name": "addWebsite",
      "outputs": [],
      "stateMutability": "nonpayable",
      "type": "function"
    },
    {
      "inputs": [
        {
          "internalType": "string",
          "name": "dom",
          "type": "string"
        }
      ],
      "name": "all",
      "outputs": [],
      "stateMutability": "view",
      "type": "function"
    },
    {
      "inputs": [
        {
          "internalType": "address",
          "name": "to",
          "type": "address"
        },
        {
          "internalType": "uint256",
          "name": "tokenId",
          "type": "uint256"
        }
      ],
      "name": "approve",
      "outputs": [],
      "stateMutability": "nonpayable",
      "type": "function"
    },
    {
      "inputs": [
        {
          "internalType": "address",
          "name": "owner",
          "type": "address"
        }
      ],
      "name": "balanceOf",
      "outputs": [
        {
          "internalType": "uint256",
          "name": "",
          "type": "uint256"
        }
      ],
      "stateMutability": "view",
      "type": "function"
    },
    {
      "inputs": [
        {
          "internalType": "string",
          "name": "",
          "type": "string"
        }
      ],
      "name": "domains",
      "outputs": [
        {
          "internalType": "address",
          "name": "adrs",
          "type": "address"
        },
        {
          "internalType": "string",
          "name": "website_url",
          "type": "string"
        }
      ],
      "stateMutability": "view",
      "type": "function"
    },
    {
      "inputs": [
        {
          "internalType": "string",
          "name": "domain_name",
          "type": "string"
        }
      ],
      "name": "getAddress",
      "outputs": [
        {
          "internalType": "address",
          "name": "",
          "type": "address"
        }
      ],
      "stateMutability": "view",
      "type": "function"
    },
    {
      "inputs": [],
      "name": "getAllNames",
      "outputs": [
        {
          "internalType": "string[]",
          "name": "",
          "type": "string[]"
        }
      ],
      "stateMutability": "view",
      "type": "function"
    },
    {
      "inputs": [
        {
          "internalType": "uint256",
          "name": "tokenId",
          "type": "uint256"
        }
      ],
      "name": "getApproved",
      "outputs": [
        {
          "internalType": "address",
          "name": "",
          "type": "address"
        }
      ],
      "stateMutability": "view",
      "type": "function"
    },
    {
      "inputs": [
        {
          "internalType": "string",
          "name": "domain_name",
          "type": "string"
        }
      ],
      "name": "getWebsite",
      "outputs": [
        {
          "internalType": "string",
          "name": "",
          "type": "string"
        }
      ],
      "stateMutability": "view",
      "type": "function"
    },
    {
      "inputs": [
        {
          "internalType": "address",
          "name": "owner",
          "type": "address"
        },
        {
          "internalType": "address",
          "name": "operator",
          "type": "address"
        }
      ],
      "name": "isApprovedForAll",
      "outputs": [
        {
          "internalType": "bool",
          "name": "",
          "type": "bool"
        }
      ],
      "stateMutability": "view",
      "type": "function"
    },
    {
      "inputs": [],
      "name": "isOwner",
      "outputs": [
        {
          "internalType": "bool",
          "name": "",
          "type": "bool"
        }
      ],
      "stateMutability": "view",
      "type": "function"
    },
    {
      "inputs": [],
      "name": "name",
      "outputs": [
        {
          "internalType": "string",
          "name": "",
          "type": "string"
        }
      ],
      "stateMutability": "view",
      "type": "function"
    },
    {
      "inputs": [
        {
          "internalType": "uint256",
          "name": "",
          "type": "uint256"
        }
      ],
      "name": "names",
      "outputs": [
        {
          "internalType": "string",
          "name": "",
          "type": "string"
        }
      ],
      "stateMutability": "view",
      "type": "function"
    },
    {
      "inputs": [],
      "name": "owner",
      "outputs": [
        {
          "internalType": "address payable",
          "name": "",
          "type": "address"
        }
      ],
      "stateMutability": "view",
      "type": "function"
    },
    {
      "inputs": [
        {
          "internalType": "uint256",
          "name": "tokenId",
          "type": "uint256"
        }
      ],
      "name": "ownerOf",
      "outputs": [
        {
          "internalType": "address",
          "name": "",
          "type": "address"
        }
      ],
      "stateMutability": "view",
      "type": "function"
    },
    {
      "inputs": [
        {
          "internalType": "string",
          "name": "name",
          "type": "string"
        }
      ],
      "name": "price",
      "outputs": [
        {
          "internalType": "uint256",
          "name": "",
          "type": "uint256"
        }
      ],
      "stateMutability": "pure",
      "type": "function"
    },
    {
      "inputs": [
        {
          "internalType": "string",
          "name": "domain_name",
          "type": "string"
        }
      ],
      "name": "reg_address",
      "outputs": [],
      "stateMutability": "payable",
      "type": "function"
    },
    {
      "inputs": [
        {
          "internalType": "address",
          "name": "from",
          "type": "address"
        },
        {
          "internalType": "address",
          "name": "to",
          "type": "address"
        },
        {
          "internalType": "uint256",
          "name": "tokenId",
          "type": "uint256"
        }
      ],
      "name": "safeTransferFrom",
      "outputs": [],
      "stateMutability": "nonpayable",
      "type": "function"
    },
    {
      "inputs": [
        {
          "internalType": "address",
          "name": "from",
          "type": "address"
        },
        {
          "internalType": "address",
          "name": "to",
          "type": "address"
        },
        {
          "internalType": "uint256",
          "name": "tokenId",
          "type": "uint256"
        },
        {
          "internalType": "bytes",
          "name": "data",
          "type": "bytes"
        }
      ],
      "name": "safeTransferFrom",
      "outputs": [],
      "stateMutability": "nonpayable",
      "type": "function"
    },
    {
      "inputs": [
        {
          "internalType": "address",
          "name": "operator",
          "type": "address"
        },
        {
          "internalType": "bool",
          "name": "approved",
          "type": "bool"
        }
      ],
      "name": "setApprovalForAll",
      "outputs": [],
      "stateMutability": "nonpayable",
      "type": "function"
    },
    {
      "inputs": [
        {
          "internalType": "bytes4",
          "name": "interfaceId",
          "type": "bytes4"
        }
      ],
      "name": "supportsInterface",
      "outputs": [
        {
          "internalType": "bool",
          "name": "",
          "type": "bool"
        }
      ],
      "stateMutability": "view",
      "type": "function"
    },
    {
      "inputs": [],
      "name": "symbol",
      "outputs": [
        {
          "internalType": "string",
          "name": "",
          "type": "string"
        }
      ],
      "stateMutability": "view",
      "type": "function"
    },
    {
      "inputs": [],
      "name": "tld",
      "outputs": [
        {
          "internalType": "string",
          "name": "",
          "type": "string"
        }
      ],
      "stateMutability": "view",
      "type": "function"
    },
    {
      "inputs": [
        {
          "internalType": "uint256",
          "name": "tokenId",
          "type": "uint256"
        }
      ],
      "name": "tokenURI",
      "outputs": [
        {
          "internalType": "string",
          "name": "",
          "type": "string"
        }
      ],
      "stateMutability": "view",
      "type": "function"
    },
    {
      "inputs": [
        {
          "internalType": "address",
          "name": "from",
          "type": "address"
        },
        {
          "internalType": "address",
          "name": "to",
          "type": "address"
        },
        {
          "internalType": "uint256",
          "name": "tokenId",
          "type": "uint256"
        }
      ],
      "name": "transferFrom",
      "outputs": [],
      "stateMutability": "nonpayable",
      "type": "function"
    },
    {
      "inputs": [],
      "name": "withdraw",
      "outputs": [],
      "stateMutability": "nonpayable",
      "type": "function"
    }
  ],
  "bytecode": "0x6080604052604051806103a0016040528061037f81526020016200547d61037f913960089080519060200190620000389291906200035a565b506040518060400160405280600d81526020017f3c2f746578743e3c2f7376673e0000000000000000000000000000000000000081525060099080519060200190620000869291906200035a565b50604051620057fc380380620057fc8339818101604052810190620000ac9190620005a7565b6040518060400160405280601281526020017f53746f6963204e616d65205365727669636500000000000000000000000000008152506040518060400160405280600381526020017f534e5300000000000000000000000000000000000000000000000000000000008152508160009080519060200190620001309291906200035a565b508060019080519060200190620001499291906200035a565b50505033600b60006101000a81548173ffffffffffffffffffffffffffffffffffffffff021916908373ffffffffffffffffffffffffffffffffffffffff16021790555080600a9080519060200190620001a59291906200035a565b50620002846040518060400160405280601681526020017f546f70204c6576656c20446f6d61696e206973203a2000000000000000000000815250600a8054620001ef9062000627565b80601f01602080910402602001604051908101604052809291908181526020018280546200021d9062000627565b80156200026e5780601f1062000242576101008083540402835291602001916200026e565b820191906000526020600020905b8154815290600101906020018083116200025057829003601f168201915b50505050506200028b60201b62001b461760201c565b50620006f5565b6200032d8282604051602401620002a4929190620006ba565b6040516020818303038152906040527f4b5c4277000000000000000000000000000000000000000000000000000000007bffffffffffffffffffffffffffffffffffffffffffffffffffffffff19166020820180517bffffffffffffffffffffffffffffffffffffffffffffffffffffffff83818316178352505050506200033160201b60201c565b5050565b60008151905060006a636f6e736f6c652e6c6f679050602083016000808483855afa5050505050565b828054620003689062000627565b90600052602060002090601f0160209004810192826200038c5760008555620003d8565b82601f10620003a757805160ff1916838001178555620003d8565b82800160010185558215620003d8579182015b82811115620003d7578251825591602001919060010190620003ba565b5b509050620003e79190620003eb565b5090565b5b8082111562000406576000816000905550600101620003ec565b5090565b6000604051905090565b600080fd5b600080fd5b600080fd5b600080fd5b6000601f19601f8301169050919050565b7f4e487b7100000000000000000000000000000000000000000000000000000000600052604160045260246000fd5b620004738262000428565b810181811067ffffffffffffffff8211171562000495576200049462000439565b5b80604052505050565b6000620004aa6200040a565b9050620004b8828262000468565b919050565b600067ffffffffffffffff821115620004db57620004da62000439565b5b620004e68262000428565b9050602081019050919050565b60005b8381101562000513578082015181840152602081019050620004f6565b8381111562000523576000848401525b50505050565b6000620005406200053a84620004bd565b6200049e565b9050828152602081018484840111156200055f576200055e62000423565b5b6200056c848285620004f3565b509392505050565b600082601f8301126200058c576200058b6200041e565b5b81516200059e84826020860162000529565b91505092915050565b600060208284031215620005c057620005bf62000414565b5b600082015167ffffffffffffffff811115620005e157620005e062000419565b5b620005ef8482850162000574565b91505092915050565b7f4e487b7100000000000000000000000000000000000000000000000000000000600052602260045260246000fd5b600060028204905060018216806200064057607f821691505b60208210811415620006575762000656620005f8565b5b50919050565b600081519050919050565b600082825260208201905092915050565b600062000686826200065d565b62000692818562000668565b9350620006a4818560208601620004f3565b620006af8162000428565b840191505092915050565b60006040820190508181036000830152620006d6818562000679565b90508181036020830152620006ec818462000679565b90509392505050565b614d7880620007056000396000f3fe6080604052600436106101815760003560e01c806370a08231116100d1578063b4ed40a51161008a578063c87b56dd11610064578063c87b56dd14610598578063e985e9c5146105d5578063fb825e5f14610612578063fe2c61981461063d57610181565b8063b4ed40a5146104f5578063b88d4fde14610532578063bf40fac11461055b57610181565b806370a08231146103e5578063828e1156146104225780638da5cb5b1461044b5780638f32d59b1461047657806395d89b41146104a1578063a22cb465146104cc57610181565b8063264492351161013e57806342842e0e1161011857806342842e0e146103195780634622ab0314610342578063482e2e8e1461037f5780636352211e146103a857610181565b806326449235146102995780632d551432146102d75780633ccfd60b1461030257610181565b806301ffc9a71461018657806306fdde03146101c3578063081812fc146101ee578063095ea7b31461022b5780630e907f961461025457806323b872dd14610270575b600080fd5b34801561019257600080fd5b506101ad60048036038101906101a8919061332b565b61067a565b6040516101ba9190613373565b60405180910390f35b3480156101cf57600080fd5b506101d861075c565b6040516101e59190613427565b60405180910390f35b3480156101fa57600080fd5b506102156004803603810190610210919061347f565b6107ee565b60405161022291906134ed565b60405180910390f35b34801561023757600080fd5b50610252600480360381019061024d9190613534565b610834565b005b61026e600480360381019061026991906135d9565b61094c565b005b34801561027c57600080fd5b5061029760048036038101906102929190613626565b610dca565b005b3480156102a557600080fd5b506102c060048036038101906102bb91906137a9565b610e2a565b6040516102ce9291906137f2565b60405180910390f35b3480156102e357600080fd5b506102ec610f0c565b6040516102f99190613427565b60405180910390f35b34801561030e57600080fd5b50610317610f9a565b005b34801561032557600080fd5b50610340600480360381019061033b9190613626565b61105f565b005b34801561034e57600080fd5b506103696004803603810190610364919061347f565b61107f565b6040516103769190613427565b60405180910390f35b34801561038b57600080fd5b506103a660048036038101906103a191906135d9565b61111f565b005b3480156103b457600080fd5b506103cf60048036038101906103ca919061347f565b611272565b6040516103dc91906134ed565b60405180910390f35b3480156103f157600080fd5b5061040c60048036038101906104079190613822565b6112f9565b604051610419919061385e565b60405180910390f35b34801561042e57600080fd5b5061044960048036038101906104449190613879565b6113b1565b005b34801561045757600080fd5b506104606114a3565b60405161046d919061391b565b60405180910390f35b34801561048257600080fd5b5061048b6114c9565b6040516104989190613373565b60405180910390f35b3480156104ad57600080fd5b506104b6611521565b6040516104c39190613427565b60405180910390f35b3480156104d857600080fd5b506104f360048036038101906104ee9190613962565b6115b3565b005b34801561050157600080fd5b5061051c600480360381019061051791906135d9565b6115c9565b6040516105299190613427565b60405180910390f35b34801561053e57600080fd5b5061055960048036038101906105549190613a43565b61167f565b005b34801561056757600080fd5b50610582600480360381019061057d91906135d9565b6116e1565b60405161058f91906134ed565b60405180910390f35b3480156105a457600080fd5b506105bf60048036038101906105ba919061347f565b61172f565b6040516105cc9190613427565b60405180910390f35b3480156105e157600080fd5b506105fc60048036038101906105f79190613ac6565b611842565b6040516106099190613373565b60405180910390f35b34801561061e57600080fd5b506106276118d6565b6040516106349190613c12565b60405180910390f35b34801561064957600080fd5b50610664600480360381019061065f91906135d9565b611ab4565b604051610671919061385e565b60405180910390f35b60007f80ac58cd000000000000000000000000000000000000000000000000000000007bffffffffffffffffffffffffffffffffffffffffffffffffffffffff1916827bffffffffffffffffffffffffffffffffffffffffffffffffffffffff1916148061074557507f5b5e139f000000000000000000000000000000000000000000000000000000007bffffffffffffffffffffffffffffffffffffffffffffffffffffffff1916827bffffffffffffffffffffffffffffffffffffffffffffffffffffffff1916145b80610755575061075482611be2565b5b9050919050565b60606000805461076b90613c63565b80601f016020809104026020016040519081016040528092919081815260200182805461079790613c63565b80156107e45780601f106107b9576101008083540402835291602001916107e4565b820191906000526020600020905b8154815290600101906020018083116107c757829003601f168201915b5050505050905090565b60006107f982611c4c565b6004600083815260200190815260200160002060009054906101000a900473ffffffffffffffffffffffffffffffffffffffff169050919050565b600061083f82611272565b90508073ffffffffffffffffffffffffffffffffffffffff168373ffffffffffffffffffffffffffffffffffffffff1614156108b0576040517f08c379a00000000000000000000000000000000000000000000000000000000081526004016108a790613d07565b60405180910390fd5b8073ffffffffffffffffffffffffffffffffffffffff166108cf611c97565b73ffffffffffffffffffffffffffffffffffffffff1614806108fe57506108fd816108f8611c97565b611842565b5b61093d576040517f08c379a000000000000000000000000000000000000000000000000000000000815260040161093490613d99565b60405180910390fd5b6109478383611c9f565b505050565b600073ffffffffffffffffffffffffffffffffffffffff16600c8383604051610976929190613de9565b908152602001604051809103902060000160009054906101000a900473ffffffffffffffffffffffffffffffffffffffff1673ffffffffffffffffffffffffffffffffffffffff16146109fe576040517f08c379a00000000000000000000000000000000000000000000000000000000081526004016109f590613e74565b60405180910390fd5b6000610a0a8383611ab4565b905080341015610a4f576040517f08c379a0000000000000000000000000000000000000000000000000000000008152600401610a4690613f06565b60405180910390fd5b60008383600a604051602001610a6793929190614006565b604051602081830303815290604052905060006008826009604051602001610a9193929190614068565b60405160208183030381529060405290506000610aae6007611d58565b90506000610aff87878080601f016020809104026020016040519081016040528093929190818152602001838380828437600081840152601f19601f82011690508083019250505050505050611d66565b90506000610b0c82611f1b565b9050610c00604051806060016040528060318152602001614c746031913989898080601f016020809104026020016040519081016040528093929190818152602001838380828437600081840152601f19601f82011690508083019250505050505050600a8054610b7c90613c63565b80601f0160208091040260200160405190810160405280929190818152602001828054610ba890613c63565b8015610bf55780601f10610bca57610100808354040283529160200191610bf5565b820191906000526020600020905b815481529060010190602001808311610bd857829003601f168201915b505050505086611ff3565b6000610c3686610c0f87612095565b84604051602001610c2293929190614215565b604051602081830303815290604052612095565b9050600081604051602001610c4b91906142be565b6040516020818303038152906040529050610c7d604051806060016040528060398152602001614c3b603991396121f9565b610cbc6040518060400160405280600e81526020017f46696e616c20746f6b656e55524900000000000000000000000000000000000081525082611b46565b610cdd604051806060016040528060398152602001614ca5603991396121f9565b610ce73386612292565b610cf185826122b0565b33600c8b8b604051610d04929190613de9565b908152602001604051809103902060000160006101000a81548173ffffffffffffffffffffffffffffffffffffffff021916908373ffffffffffffffffffffffffffffffffffffffff160217905550610d916040518060400160405280601d81526020017f5468652072656769737465726174696f6e2077617320737563636573730000008152506121f9565b8989600d60008881526020019081526020016000209190610db3929190613196565b50610dbe6007612324565b50505050505050505050565b610ddb610dd5611c97565b8261233a565b610e1a576040517f08c379a0000000000000000000000000000000000000000000000000000000008152600401610e1190614352565b60405180910390fd5b610e258383836123cf565b505050565b600c818051602081018201805184825260208301602085012081835280955050505050506000915090508060000160009054906101000a900473ffffffffffffffffffffffffffffffffffffffff1690806001018054610e8990613c63565b80601f0160208091040260200160405190810160405280929190818152602001828054610eb590613c63565b8015610f025780601f10610ed757610100808354040283529160200191610f02565b820191906000526020600020905b815481529060010190602001808311610ee557829003601f168201915b5050505050905082565b600a8054610f1990613c63565b80601f0160208091040260200160405190810160405280929190818152602001828054610f4590613c63565b8015610f925780601f10610f6757610100808354040283529160200191610f92565b820191906000526020600020905b815481529060010190602001808311610f7557829003601f168201915b505050505081565b610fa26114c9565b610fab57600080fd5b600047905060003373ffffffffffffffffffffffffffffffffffffffff1682604051610fd6906143a3565b60006040518083038185875af1925050503d8060008114611013576040519150601f19603f3d011682016040523d82523d6000602084013e611018565b606091505b5050905060001515811515141561105b576040517f1c183b5700000000000000000000000000000000000000000000000000000000815260040160405180910390fd5b5050565b61107a8383836040518060200160405280600081525061167f565b505050565b600d602052806000526040600020600091509050805461109e90613c63565b80601f01602080910402602001604051908101604052809291908181526020018280546110ca90613c63565b80156111175780601f106110ec57610100808354040283529160200191611117565b820191906000526020600020905b8154815290600101906020018083116110fa57829003601f168201915b505050505081565b6111a16040518060400160405280601b81526020017f61646472657373206f66207468697320646f6d61696e2069733a200000000000815250600c848460405161116a929190613de9565b908152602001604051809103902060000160009054906101000a900473ffffffffffffffffffffffffffffffffffffffff166126c9565b61126e604051806060016040528060258152602001614d1e60259139600c84846040516111cf929190613de9565b908152602001604051809103902060010180546111eb90613c63565b80601f016020809104026020016040519081016040528092919081815260200182805461121790613c63565b80156112645780601f1061123957610100808354040283529160200191611264565b820191906000526020600020905b81548152906001019060200180831161124757829003601f168201915b5050505050611b46565b5050565b60008061127e83612765565b9050600073ffffffffffffffffffffffffffffffffffffffff168173ffffffffffffffffffffffffffffffffffffffff1614156112f0576040517f08c379a00000000000000000000000000000000000000000000000000000000081526004016112e790614404565b60405180910390fd5b80915050919050565b60008073ffffffffffffffffffffffffffffffffffffffff168273ffffffffffffffffffffffffffffffffffffffff16141561136a576040517f08c379a000000000000000000000000000000000000000000000000000000000815260040161136190614496565b60405180910390fd5b600360008373ffffffffffffffffffffffffffffffffffffffff1673ffffffffffffffffffffffffffffffffffffffff168152602001908152602001600020549050919050565b3373ffffffffffffffffffffffffffffffffffffffff16600c85856040516113da929190613de9565b908152602001604051809103902060000160009054906101000a900473ffffffffffffffffffffffffffffffffffffffff1673ffffffffffffffffffffffffffffffffffffffff161461142c57600080fd5b8181600c8686604051611440929190613de9565b9081526020016040518091039020600101919061145e929190613196565b5061149d6040518060400160405280601a81526020017f55524c20776173207375636365737366756c6c792061646465640000000000008152506121f9565b50505050565b600b60009054906101000a900473ffffffffffffffffffffffffffffffffffffffff1681565b6000600b60009054906101000a900473ffffffffffffffffffffffffffffffffffffffff1673ffffffffffffffffffffffffffffffffffffffff163373ffffffffffffffffffffffffffffffffffffffff1614905090565b60606001805461153090613c63565b80601f016020809104026020016040519081016040528092919081815260200182805461155c90613c63565b80156115a95780601f1061157e576101008083540402835291602001916115a9565b820191906000526020600020905b81548152906001019060200180831161158c57829003601f168201915b5050505050905090565b6115c56115be611c97565b83836127a2565b5050565b6060600c83836040516115dd929190613de9565b908152602001604051809103902060010180546115f990613c63565b80601f016020809104026020016040519081016040528092919081815260200182805461162590613c63565b80156116725780601f1061164757610100808354040283529160200191611672565b820191906000526020600020905b81548152906001019060200180831161165557829003601f168201915b5050505050905092915050565b61169061168a611c97565b8361233a565b6116cf576040517f08c379a00000000000000000000000000000000000000000000000000000000081526004016116c690614352565b60405180910390fd5b6116db8484848461290f565b50505050565b6000600c83836040516116f5929190613de9565b908152602001604051809103902060000160009054906101000a900473ffffffffffffffffffffffffffffffffffffffff16905092915050565b606061173a82611c4c565b600060066000848152602001908152602001600020805461175a90613c63565b80601f016020809104026020016040519081016040528092919081815260200182805461178690613c63565b80156117d35780601f106117a8576101008083540402835291602001916117d3565b820191906000526020600020905b8154815290600101906020018083116117b657829003601f168201915b5050505050905060006117e461296b565b90506000815114156117fa57819250505061183d565b60008251111561182f5780826040516020016118179291906144b6565b6040516020818303038152906040529250505061183d565b61183884612982565b925050505b919050565b6000600560008473ffffffffffffffffffffffffffffffffffffffff1673ffffffffffffffffffffffffffffffffffffffff16815260200190815260200160002060008373ffffffffffffffffffffffffffffffffffffffff1673ffffffffffffffffffffffffffffffffffffffff16815260200190815260200160002060009054906101000a900460ff16905092915050565b60606119166040518060400160405280601f81526020017f47657474696e6720616c6c206e616d65732066726f6d20636f6e7472616374008152506121f9565b60006119226007611d58565b67ffffffffffffffff81111561193b5761193a61367e565b5b60405190808252806020026020018201604052801561196e57816020015b60608152602001906001900390816119595790505b50905060005b61197e6007611d58565b811015611aac57600d600082815260200190815260200160002080546119a390613c63565b80601f01602080910402602001604051908101604052809291908181526020018280546119cf90613c63565b8015611a1c5780601f106119f157610100808354040283529160200191611a1c565b820191906000526020600020905b8154815290600101906020018083116119ff57829003601f168201915b5050505050828281518110611a3457611a336144da565b5b6020026020010181905250611a996040518060400160405280601781526020017f4e616d6520666f7220746f6b656e20256420697320257300000000000000000081525082848481518110611a8c57611a8b6144da565b5b60200260200101516129ea565b8080611aa490614538565b915050611974565b508091505090565b600080611b0484848080601f016020809104026020016040519081016040528093929190818152602001838380828437600081840152601f19601f82011690508083019250505050505050611d66565b905060008111611b1357600080fd5b662386f26fc1000080826014611b2991906145b0565b611b3391906145e1565b611b3d919061463b565b91505092915050565b611bde8282604051602401611b5c929190614691565b6040516020818303038152906040527f4b5c4277000000000000000000000000000000000000000000000000000000007bffffffffffffffffffffffffffffffffffffffffffffffffffffffff19166020820180517bffffffffffffffffffffffffffffffffffffffffffffffffffffffff8381831617835250505050612a89565b5050565b60007f01ffc9a7000000000000000000000000000000000000000000000000000000007bffffffffffffffffffffffffffffffffffffffffffffffffffffffff1916827bffffffffffffffffffffffffffffffffffffffffffffffffffffffff1916149050919050565b611c5581612ab2565b611c94576040517f08c379a0000000000000000000000000000000000000000000000000000000008152600401611c8b90614404565b60405180910390fd5b50565b600033905090565b816004600083815260200190815260200160002060006101000a81548173ffffffffffffffffffffffffffffffffffffffff021916908373ffffffffffffffffffffffffffffffffffffffff160217905550808273ffffffffffffffffffffffffffffffffffffffff16611d1283611272565b73ffffffffffffffffffffffffffffffffffffffff167f8c5be1e5ebec7d5bd14f71427d1e84f3dd0314c0f7b2291e5b200ac8c7c3b92560405160405180910390a45050565b600081600001549050919050565b60008060008084519050600092505b80821015611f10576000858381518110611d9257611d916144da565b5b602001015160f81c60f81b9050608060f81b817effffffffffffffffffffffffffffffffffffffffffffffffffffffffffffff19161015611de157600183611dda919061463b565b9250611efc565b60e060f81b817effffffffffffffffffffffffffffffffffffffffffffffffffffffffffffff19161015611e2357600283611e1c919061463b565b9250611efb565b60f060f81b817effffffffffffffffffffffffffffffffffffffffffffffffffffffffffffff19161015611e6557600383611e5e919061463b565b9250611efa565b60f8801b817effffffffffffffffffffffffffffffffffffffffffffffffffffffffffffff19161015611ea657600483611e9f919061463b565b9250611ef9565b60fc60f81b817effffffffffffffffffffffffffffffffffffffffffffffffffffffffffffff19161015611ee857600583611ee1919061463b565b9250611ef8565b600683611ef5919061463b565b92505b5b5b5b5b508280611f0890614538565b935050611d75565b829350505050919050565b606060006001611f2a84612af3565b01905060008167ffffffffffffffff811115611f4957611f4861367e565b5b6040519080825280601f01601f191660200182016040528015611f7b5781602001600182028036833780820191505090505b509050600082602001820190505b600115611fe8578080600190039150507f3031323334353637383961626364656600000000000000000000000000000000600a86061a8153600a8581611fd257611fd1614581565b5b0494506000851415611fe357611fe8565b611f89565b819350505050919050565b61208f8484848460405160240161200d94939291906146c8565b6040516020818303038152906040527f8eafb02b000000000000000000000000000000000000000000000000000000007bffffffffffffffffffffffffffffffffffffffffffffffffffffffff19166020820180517bffffffffffffffffffffffffffffffffffffffffffffffffffffffff8381831617835250505050612a89565b50505050565b60606000825114156120b8576040518060200160405280600081525090506121f4565b6000604051806060016040528060408152602001614cde60409139905060006003600285516120e7919061463b565b6120f191906145b0565b60046120fd91906145e1565b67ffffffffffffffff8111156121165761211561367e565b5b6040519080825280601f01601f1916602001820160405280156121485781602001600182028036833780820191505090505b509050600182016020820185865187015b808210156121b4576003820191508151603f8160121c168501518453600184019350603f81600c1c168501518453600184019350603f8160061c168501518453600184019350603f8116850151845360018401935050612159565b50506003865106600181146121d057600281146121e3576121eb565b603d6001830353603d60028303536121eb565b603d60018303535b50505080925050505b919050565b61228f8160405160240161220d9190613427565b6040516020818303038152906040527f41304fac000000000000000000000000000000000000000000000000000000007bffffffffffffffffffffffffffffffffffffffffffffffffffffffff19166020820180517bffffffffffffffffffffffffffffffffffffffffffffffffffffffff8381831617835250505050612a89565b50565b6122ac828260405180602001604052806000815250612c46565b5050565b6122b982612ab2565b6122f8576040517f08c379a00000000000000000000000000000000000000000000000000000000081526004016122ef90614794565b60405180910390fd5b8060066000848152602001908152602001600020908051906020019061231f92919061321c565b505050565b6001816000016000828254019250508190555050565b60008061234683611272565b90508073ffffffffffffffffffffffffffffffffffffffff168473ffffffffffffffffffffffffffffffffffffffff16148061238857506123878185611842565b5b806123c657508373ffffffffffffffffffffffffffffffffffffffff166123ae846107ee565b73ffffffffffffffffffffffffffffffffffffffff16145b91505092915050565b8273ffffffffffffffffffffffffffffffffffffffff166123ef82611272565b73ffffffffffffffffffffffffffffffffffffffff1614612445576040517f08c379a000000000000000000000000000000000000000000000000000000000815260040161243c90614826565b60405180910390fd5b600073ffffffffffffffffffffffffffffffffffffffff168273ffffffffffffffffffffffffffffffffffffffff1614156124b5576040517f08c379a00000000000000000000000000000000000000000000000000000000081526004016124ac906148b8565b60405180910390fd5b6124c28383836001612ca1565b8273ffffffffffffffffffffffffffffffffffffffff166124e282611272565b73ffffffffffffffffffffffffffffffffffffffff1614612538576040517f08c379a000000000000000000000000000000000000000000000000000000000815260040161252f90614826565b60405180910390fd5b6004600082815260200190815260200160002060006101000a81549073ffffffffffffffffffffffffffffffffffffffff02191690556001600360008573ffffffffffffffffffffffffffffffffffffffff1673ffffffffffffffffffffffffffffffffffffffff168152602001908152602001600020600082825403925050819055506001600360008473ffffffffffffffffffffffffffffffffffffffff1673ffffffffffffffffffffffffffffffffffffffff16815260200190815260200160002060008282540192505081905550816002600083815260200190815260200160002060006101000a81548173ffffffffffffffffffffffffffffffffffffffff021916908373ffffffffffffffffffffffffffffffffffffffff160217905550808273ffffffffffffffffffffffffffffffffffffffff168473ffffffffffffffffffffffffffffffffffffffff167fddf252ad1be2c89b69c2b068fc378daa952ba7f163c4a11628f55a4df523b3ef60405160405180910390a46126c48383836001612dc7565b505050565b61276182826040516024016126df9291906148d8565b6040516020818303038152906040527f319af333000000000000000000000000000000000000000000000000000000007bffffffffffffffffffffffffffffffffffffffffffffffffffffffff19166020820180517bffffffffffffffffffffffffffffffffffffffffffffffffffffffff8381831617835250505050612a89565b5050565b60006002600083815260200190815260200160002060009054906101000a900473ffffffffffffffffffffffffffffffffffffffff169050919050565b8173ffffffffffffffffffffffffffffffffffffffff168373ffffffffffffffffffffffffffffffffffffffff161415612811576040517f08c379a000000000000000000000000000000000000000000000000000000000815260040161280890614954565b60405180910390fd5b80600560008573ffffffffffffffffffffffffffffffffffffffff1673ffffffffffffffffffffffffffffffffffffffff16815260200190815260200160002060008473ffffffffffffffffffffffffffffffffffffffff1673ffffffffffffffffffffffffffffffffffffffff16815260200190815260200160002060006101000a81548160ff0219169083151502179055508173ffffffffffffffffffffffffffffffffffffffff168373ffffffffffffffffffffffffffffffffffffffff167f17307eab39ab6107e8899845ad3d59bd9653f200f220920489ca2b5937696c31836040516129029190613373565b60405180910390a3505050565b61291a8484846123cf565b61292684848484612dcd565b612965576040517f08c379a000000000000000000000000000000000000000000000000000000000815260040161295c906149e6565b60405180910390fd5b50505050565b606060405180602001604052806000815250905090565b606061298d82611c4c565b600061299761296b565b905060008151116129b757604051806020016040528060008152506129e2565b806129c184611f1b565b6040516020016129d29291906144b6565b6040516020818303038152906040525b915050919050565b612a84838383604051602401612a0293929190614a06565b6040516020818303038152906040527f5970e089000000000000000000000000000000000000000000000000000000007bffffffffffffffffffffffffffffffffffffffffffffffffffffffff19166020820180517bffffffffffffffffffffffffffffffffffffffffffffffffffffffff8381831617835250505050612a89565b505050565b60008151905060006a636f6e736f6c652e6c6f679050602083016000808483855afa5050505050565b60008073ffffffffffffffffffffffffffffffffffffffff16612ad483612765565b73ffffffffffffffffffffffffffffffffffffffff1614159050919050565b600080600090507a184f03e93ff9f4daa797ed6e38ed64bf6a1f0100000000000000008310612b51577a184f03e93ff9f4daa797ed6e38ed64bf6a1f0100000000000000008381612b4757612b46614581565b5b0492506040810190505b6d04ee2d6d415b85acef81000000008310612b8e576d04ee2d6d415b85acef81000000008381612b8457612b83614581565b5b0492506020810190505b662386f26fc100008310612bbd57662386f26fc100008381612bb357612bb2614581565b5b0492506010810190505b6305f5e1008310612be6576305f5e1008381612bdc57612bdb614581565b5b0492506008810190505b6127108310612c0b576127108381612c0157612c00614581565b5b0492506004810190505b60648310612c2e5760648381612c2457612c23614581565b5b0492506002810190505b600a8310612c3d576001810190505b80915050919050565b612c508383612f55565b612c5d6000848484612dcd565b612c9c576040517f08c379a0000000000000000000000000000000000000000000000000000000008152600401612c93906149e6565b60405180910390fd5b505050565b6001811115612dc157600073ffffffffffffffffffffffffffffffffffffffff168473ffffffffffffffffffffffffffffffffffffffff1614612d355780600360008673ffffffffffffffffffffffffffffffffffffffff1673ffffffffffffffffffffffffffffffffffffffff1681526020019081526020016000206000828254612d2d9190614a4b565b925050819055505b600073ffffffffffffffffffffffffffffffffffffffff168373ffffffffffffffffffffffffffffffffffffffff1614612dc05780600360008573ffffffffffffffffffffffffffffffffffffffff1673ffffffffffffffffffffffffffffffffffffffff1681526020019081526020016000206000828254612db8919061463b565b925050819055505b5b50505050565b50505050565b6000612dee8473ffffffffffffffffffffffffffffffffffffffff16613173565b15612f48578373ffffffffffffffffffffffffffffffffffffffff1663150b7a02612e17611c97565b8786866040518563ffffffff1660e01b8152600401612e399493929190614ad4565b6020604051808303816000875af1925050508015612e7557506040513d601f19601f82011682018060405250810190612e729190614b35565b60015b612ef8573d8060008114612ea5576040519150601f19603f3d011682016040523d82523d6000602084013e612eaa565b606091505b50600081511415612ef0576040517f08c379a0000000000000000000000000000000000000000000000000000000008152600401612ee7906149e6565b60405180910390fd5b805181602001fd5b63150b7a0260e01b7bffffffffffffffffffffffffffffffffffffffffffffffffffffffff1916817bffffffffffffffffffffffffffffffffffffffffffffffffffffffff191614915050612f4d565b600190505b949350505050565b600073ffffffffffffffffffffffffffffffffffffffff168273ffffffffffffffffffffffffffffffffffffffff161415612fc5576040517f08c379a0000000000000000000000000000000000000000000000000000000008152600401612fbc90614bae565b60405180910390fd5b612fce81612ab2565b1561300e576040517f08c379a000000000000000000000000000000000000000000000000000000000815260040161300590614c1a565b60405180910390fd5b61301c600083836001612ca1565b61302581612ab2565b15613065576040517f08c379a000000000000000000000000000000000000000000000000000000000815260040161305c90614c1a565b60405180910390fd5b6001600360008473ffffffffffffffffffffffffffffffffffffffff1673ffffffffffffffffffffffffffffffffffffffff16815260200190815260200160002060008282540192505081905550816002600083815260200190815260200160002060006101000a81548173ffffffffffffffffffffffffffffffffffffffff021916908373ffffffffffffffffffffffffffffffffffffffff160217905550808273ffffffffffffffffffffffffffffffffffffffff16600073ffffffffffffffffffffffffffffffffffffffff167fddf252ad1be2c89b69c2b068fc378daa952ba7f163c4a11628f55a4df523b3ef60405160405180910390a461316f600083836001612dc7565b5050565b6000808273ffffffffffffffffffffffffffffffffffffffff163b119050919050565b8280546131a290613c63565b90600052602060002090601f0160209004810192826131c4576000855561320b565b82601f106131dd57803560ff191683800117855561320b565b8280016001018555821561320b579182015b8281111561320a5782358255916020019190600101906131ef565b5b50905061321891906132a2565b5090565b82805461322890613c63565b90600052602060002090601f01602090048101928261324a5760008555613291565b82601f1061326357805160ff1916838001178555613291565b82800160010185558215613291579182015b82811115613290578251825591602001919060010190613275565b5b50905061329e91906132a2565b5090565b5b808211156132bb5760008160009055506001016132a3565b5090565b6000604051905090565b600080fd5b600080fd5b60007fffffffff0000000000000000000000000000000000000000000000000000000082169050919050565b613308816132d3565b811461331357600080fd5b50565b600081359050613325816132ff565b92915050565b600060208284031215613341576133406132c9565b5b600061334f84828501613316565b91505092915050565b60008115159050919050565b61336d81613358565b82525050565b60006020820190506133886000830184613364565b92915050565b600081519050919050565b600082825260208201905092915050565b60005b838110156133c85780820151818401526020810190506133ad565b838111156133d7576000848401525b50505050565b6000601f19601f8301169050919050565b60006133f98261338e565b6134038185613399565b93506134138185602086016133aa565b61341c816133dd565b840191505092915050565b6000602082019050818103600083015261344181846133ee565b905092915050565b6000819050919050565b61345c81613449565b811461346757600080fd5b50565b60008135905061347981613453565b92915050565b600060208284031215613495576134946132c9565b5b60006134a38482850161346a565b91505092915050565b600073ffffffffffffffffffffffffffffffffffffffff82169050919050565b60006134d7826134ac565b9050919050565b6134e7816134cc565b82525050565b600060208201905061350260008301846134de565b92915050565b613511816134cc565b811461351c57600080fd5b50565b60008135905061352e81613508565b92915050565b6000806040838503121561354b5761354a6132c9565b5b60006135598582860161351f565b925050602061356a8582860161346a565b9150509250929050565b600080fd5b600080fd5b600080fd5b60008083601f84011261359957613598613574565b5b8235905067ffffffffffffffff8111156135b6576135b5613579565b5b6020830191508360018202830111156135d2576135d161357e565b5b9250929050565b600080602083850312156135f0576135ef6132c9565b5b600083013567ffffffffffffffff81111561360e5761360d6132ce565b5b61361a85828601613583565b92509250509250929050565b60008060006060848603121561363f5761363e6132c9565b5b600061364d8682870161351f565b935050602061365e8682870161351f565b925050604061366f8682870161346a565b9150509250925092565b600080fd5b7f4e487b7100000000000000000000000000000000000000000000000000000000600052604160045260246000fd5b6136b6826133dd565b810181811067ffffffffffffffff821117156136d5576136d461367e565b5b80604052505050565b60006136e86132bf565b90506136f482826136ad565b919050565b600067ffffffffffffffff8211156137145761371361367e565b5b61371d826133dd565b9050602081019050919050565b82818337600083830152505050565b600061374c613747846136f9565b6136de565b90508281526020810184848401111561376857613767613679565b5b61377384828561372a565b509392505050565b600082601f8301126137905761378f613574565b5b81356137a0848260208601613739565b91505092915050565b6000602082840312156137bf576137be6132c9565b5b600082013567ffffffffffffffff8111156137dd576137dc6132ce565b5b6137e98482850161377b565b91505092915050565b600060408201905061380760008301856134de565b818103602083015261381981846133ee565b90509392505050565b600060208284031215613838576138376132c9565b5b60006138468482850161351f565b91505092915050565b61385881613449565b82525050565b6000602082019050613873600083018461384f565b92915050565b60008060008060408587031215613893576138926132c9565b5b600085013567ffffffffffffffff8111156138b1576138b06132ce565b5b6138bd87828801613583565b9450945050602085013567ffffffffffffffff8111156138e0576138df6132ce565b5b6138ec87828801613583565b925092505092959194509250565b6000613905826134ac565b9050919050565b613915816138fa565b82525050565b6000602082019050613930600083018461390c565b92915050565b61393f81613358565b811461394a57600080fd5b50565b60008135905061395c81613936565b92915050565b60008060408385031215613979576139786132c9565b5b60006139878582860161351f565b92505060206139988582860161394d565b9150509250929050565b600067ffffffffffffffff8211156139bd576139bc61367e565b5b6139c6826133dd565b9050602081019050919050565b60006139e66139e1846139a2565b6136de565b905082815260208101848484011115613a0257613a01613679565b5b613a0d84828561372a565b509392505050565b600082601f830112613a2a57613a29613574565b5b8135613a3a8482602086016139d3565b91505092915050565b60008060008060808587031215613a5d57613a5c6132c9565b5b6000613a6b8782880161351f565b9450506020613a7c8782880161351f565b9350506040613a8d8782880161346a565b925050606085013567ffffffffffffffff811115613aae57613aad6132ce565b5b613aba87828801613a15565b91505092959194509250565b60008060408385031215613add57613adc6132c9565b5b6000613aeb8582860161351f565b9250506020613afc8582860161351f565b9150509250929050565b600081519050919050565b600082825260208201905092915050565b6000819050602082019050919050565b600082825260208201905092915050565b6000613b4e8261338e565b613b588185613b32565b9350613b688185602086016133aa565b613b71816133dd565b840191505092915050565b6000613b888383613b43565b905092915050565b6000602082019050919050565b6000613ba882613b06565b613bb28185613b11565b935083602082028501613bc485613b22565b8060005b85811015613c005784840389528151613be18582613b7c565b9450613bec83613b90565b925060208a01995050600181019050613bc8565b50829750879550505050505092915050565b60006020820190508181036000830152613c2c8184613b9d565b905092915050565b7f4e487b7100000000000000000000000000000000000000000000000000000000600052602260045260246000fd5b60006002820490506001821680613c7b57607f821691505b60208210811415613c8f57613c8e613c34565b5b50919050565b7f4552433732313a20617070726f76616c20746f2063757272656e74206f776e6560008201527f7200000000000000000000000000000000000000000000000000000000000000602082015250565b6000613cf1602183613399565b9150613cfc82613c95565b604082019050919050565b60006020820190508181036000830152613d2081613ce4565b9050919050565b7f4552433732313a20617070726f76652063616c6c6572206973206e6f7420746f60008201527f6b656e206f776e6572206f7220617070726f76656420666f7220616c6c000000602082015250565b6000613d83603d83613399565b9150613d8e82613d27565b604082019050919050565b60006020820190508181036000830152613db281613d76565b9050919050565b600081905092915050565b6000613dd08385613db9565b9350613ddd83858461372a565b82840190509392505050565b6000613df6828486613dc4565b91508190509392505050565b7f54686520646f6d61696e20697320616c7265616479206f776e6564206279207360008201527f6f6d656f6e650000000000000000000000000000000000000000000000000000602082015250565b6000613e5e602683613399565b9150613e6982613e02565b604082019050919050565b60006020820190508181036000830152613e8d81613e51565b9050919050565b7f486d6d6d2e2e2e204e6f7420656e6f756768204d6174696320796f752073656560008201527f6d20746f20626520706179696e67000000000000000000000000000000000000602082015250565b6000613ef0602e83613399565b9150613efb82613e94565b604082019050919050565b60006020820190508181036000830152613f1f81613ee3565b9050919050565b7f2e00000000000000000000000000000000000000000000000000000000000000600082015250565b6000613f5c600183613db9565b9150613f6782613f26565b600182019050919050565b60008190508160005260206000209050919050565b60008154613f9481613c63565b613f9e8186613db9565b94506001821660008114613fb95760018114613fca57613ffd565b60ff19831686528186019350613ffd565b613fd385613f72565b60005b83811015613ff557815481890152600182019150602081019050613fd6565b838801955050505b50505092915050565b6000614013828587613dc4565b915061401e82613f4f565b915061402a8284613f87565b9150819050949350505050565b60006140428261338e565b61404c8185613db9565b935061405c8185602086016133aa565b80840191505092915050565b60006140748286613f87565b91506140808285614037565b915061408c8284613f87565b9150819050949350505050565b7f7b226e616d65223a202200000000000000000000000000000000000000000000600082015250565b60006140cf600a83613db9565b91506140da82614099565b600a82019050919050565b7f222c20226465736372697074696f6e223a20224120646f6d61696e206f6e207460008201527f68652053746f6963204e616d652073657276696365222c2022696d616765223a60208201527f2022646174613a696d6167652f7376672b786d6c3b6261736536342c00000000604082015250565b6000614167605c83613db9565b9150614172826140e5565b605c82019050919050565b7f222c226c656e677468223a220000000000000000000000000000000000000000600082015250565b60006141b3600c83613db9565b91506141be8261417d565b600c82019050919050565b7f227d000000000000000000000000000000000000000000000000000000000000600082015250565b60006141ff600283613db9565b915061420a826141c9565b600282019050919050565b6000614220826140c2565b915061422c8286614037565b91506142378261415a565b91506142438285614037565b915061424e826141a6565b915061425a8284614037565b9150614265826141f2565b9150819050949350505050565b7f646174613a6170706c69636174696f6e2f6a736f6e3b6261736536342c000000600082015250565b60006142a8601d83613db9565b91506142b382614272565b601d82019050919050565b60006142c98261429b565b91506142d58284614037565b915081905092915050565b7f4552433732313a2063616c6c6572206973206e6f7420746f6b656e206f776e6560008201527f72206f7220617070726f76656400000000000000000000000000000000000000602082015250565b600061433c602d83613399565b9150614347826142e0565b604082019050919050565b6000602082019050818103600083015261436b8161432f565b9050919050565b600081905092915050565b50565b600061438d600083614372565b91506143988261437d565b600082019050919050565b60006143ae82614380565b9150819050919050565b7f4552433732313a20696e76616c696420746f6b656e2049440000000000000000600082015250565b60006143ee601883613399565b91506143f9826143b8565b602082019050919050565b6000602082019050818103600083015261441d816143e1565b9050919050565b7f4552433732313a2061646472657373207a65726f206973206e6f74206120766160008201527f6c6964206f776e65720000000000000000000000000000000000000000000000602082015250565b6000614480602983613399565b915061448b82614424565b604082019050919050565b600060208201905081810360008301526144af81614473565b9050919050565b60006144c28285614037565b91506144ce8284614037565b91508190509392505050565b7f4e487b7100000000000000000000000000000000000000000000000000000000600052603260045260246000fd5b7f4e487b7100000000000000000000000000000000000000000000000000000000600052601160045260246000fd5b600061454382613449565b91507fffffffffffffffffffffffffffffffffffffffffffffffffffffffffffffffff82141561457657614575614509565b5b600182019050919050565b7f4e487b7100000000000000000000000000000000000000000000000000000000600052601260045260246000fd5b60006145bb82613449565b91506145c683613449565b9250826145d6576145d5614581565b5b828204905092915050565b60006145ec82613449565b91506145f783613449565b9250817fffffffffffffffffffffffffffffffffffffffffffffffffffffffffffffffff04831182151516156146305761462f614509565b5b828202905092915050565b600061464682613449565b915061465183613449565b9250827fffffffffffffffffffffffffffffffffffffffffffffffffffffffffffffffff0382111561468657614685614509565b5b828201905092915050565b600060408201905081810360008301526146ab81856133ee565b905081810360208301526146bf81846133ee565b90509392505050565b600060808201905081810360008301526146e281876133ee565b905081810360208301526146f681866133ee565b9050818103604083015261470a81856133ee565b9050614719606083018461384f565b95945050505050565b7f45524337323155524953746f726167653a2055524920736574206f66206e6f6e60008201527f6578697374656e7420746f6b656e000000000000000000000000000000000000602082015250565b600061477e602e83613399565b915061478982614722565b604082019050919050565b600060208201905081810360008301526147ad81614771565b9050919050565b7f4552433732313a207472616e736665722066726f6d20696e636f72726563742060008201527f6f776e6572000000000000000000000000000000000000000000000000000000602082015250565b6000614810602583613399565b915061481b826147b4565b604082019050919050565b6000602082019050818103600083015261483f81614803565b9050919050565b7f4552433732313a207472616e7366657220746f20746865207a65726f2061646460008201527f7265737300000000000000000000000000000000000000000000000000000000602082015250565b60006148a2602483613399565b91506148ad82614846565b604082019050919050565b600060208201905081810360008301526148d181614895565b9050919050565b600060408201905081810360008301526148f281856133ee565b905061490160208301846134de565b9392505050565b7f4552433732313a20617070726f766520746f2063616c6c657200000000000000600082015250565b600061493e601983613399565b915061494982614908565b602082019050919050565b6000602082019050818103600083015261496d81614931565b9050919050565b7f4552433732313a207472616e7366657220746f206e6f6e20455243373231526560008201527f63656976657220696d706c656d656e7465720000000000000000000000000000602082015250565b60006149d0603283613399565b91506149db82614974565b604082019050919050565b600060208201905081810360008301526149ff816149c3565b9050919050565b60006060820190508181036000830152614a2081866133ee565b9050614a2f602083018561384f565b8181036040830152614a4181846133ee565b9050949350505050565b6000614a5682613449565b9150614a6183613449565b925082821015614a7457614a73614509565b5b828203905092915050565b600081519050919050565b600082825260208201905092915050565b6000614aa682614a7f565b614ab08185614a8a565b9350614ac08185602086016133aa565b614ac9816133dd565b840191505092915050565b6000608082019050614ae960008301876134de565b614af660208301866134de565b614b03604083018561384f565b8181036060830152614b158184614a9b565b905095945050505050565b600081519050614b2f816132ff565b92915050565b600060208284031215614b4b57614b4a6132c9565b5b6000614b5984828501614b20565b91505092915050565b7f4552433732313a206d696e7420746f20746865207a65726f2061646472657373600082015250565b6000614b98602083613399565b9150614ba382614b62565b602082019050919050565b60006020820190508181036000830152614bc781614b8b565b9050919050565b7f4552433732313a20746f6b656e20616c7265616479206d696e74656400000000600082015250565b6000614c04601c83613399565b9150614c0f82614bce565b602082019050919050565b60006020820190508181036000830152614c3381614bf7565b905091905056fe0a2d2d2d2d2d2d2d2d2d2d2d2d2d2d2d2d2d2d2d2d2d2d2d2d2d2d2d2d2d2d2d2d2d2d2d2d2d2d2d2d2d2d2d2d2d2d2d2d2d2d2d2d2d2d2d2d5265676973746572696e672025732e2573206f6e2074686520636f6e7472616374207769746820746f6b656e49442025642d2d2d2d2d2d2d2d2d2d2d2d2d2d2d2d2d2d2d2d2d2d2d2d2d2d2d2d2d2d2d2d2d2d2d2d2d2d2d2d2d2d2d2d2d2d2d2d2d2d2d2d2d2d2d2d0a4142434445464748494a4b4c4d4e4f505152535455565758595a6162636465666768696a6b6c6d6e6f707172737475767778797a303132333435363738392b2f75726c206173736f6369617465642077697468207468697320616464726573732069733a20a264697066735822122062dcbdccde7813934217b488326ef1db59b4a5fbf8840c38494dbdf2ceebf1d464736f6c634300080a00333c73766720786d6c6e733d22687474703a2f2f7777772e77332e6f72672f323030302f737667222077696474683d2232373022206865696768743d22323730222066696c6c3d226e6f6e65223e203c706174682066696c6c3d2275726c282342292220643d224d302030683237307632373048307a222f3e203c646566733e203c66696c7465722069643d22412220636f6c6f722d696e746572706f6c6174696f6e2d66696c746572733d2273524742222066696c746572556e6974733d227573657253706163654f6e55736522206865696768743d22323730222077696474683d22323730223e203c666544726f70536861646f772064783d2230222064793d22312220737464446576696174696f6e3d22322220666c6f6f642d6f7061636974793d222e323235222077696474683d223230302522206865696768743d2232303025222f3e203c2f66696c7465723e203c2f646566733e203c7061746820643d224d31313220304c3133382e3236382037362e30303831483232332e3237344c3135342e353033203132322e3938344c3138302e373731203139382e3939324c313132203135322e3031364c34332e32323931203139382e3939324c36392e34393733203132322e3938344c302e3732363338372037362e303038314838352e373331394c31313220305a222066696c6c3d2223383831443144222f3e203c646566733e203c6c696e6561724772616469656e742069643d2242222078313d2230222079313d2230222078323d22323730222079323d2232373022206772616469656e74556e6974733d227573657253706163654f6e557365223e203c73746f702073746f702d636f6c6f723d2223636235656565222f3e3c73746f70206f66667365743d2231222073746f702d636f6c6f723d2223306364376534222073746f702d6f7061636974793d222e3939222f3e203c2f6c696e6561724772616469656e743e203c2f646566733e203c7465787420783d2233322e352220793d223233312220666f6e742d73697a653d223237222066696c6c3d2223666666222066696c7465723d2275726c282341292220666f6e742d66616d696c793d22506c7573204a616b617274612053616e732c44656a6156752053616e732c4e6f746f20436f6c6f7220456d6f6a692c4170706c6520436f6c6f7220456d6f6a692c73616e732d73657269662220666f6e742d7765696768743d22626f6c64223e",
  "linkReferences": {},
  "deployedLinkReferences": {}
}